0000010010120180713BVIBOVESPA                 +00000000000000000007659400                                    
0000020010120180716BVIBOVESPA                 +00000000000000000007665200                                    
0000030010120180713DEDE11-B40                 +00000000000000000105450004                                    
0000040010120180716DEDE11-B40                 +00000000000000000105450004                                    
0000050010120180713DEDE21-B20                 +00000000000000000001146702                                    
0000060010120180716DEDE21-B20                 +00000000000000000001146202                                    
0000070010120180713DEDE28-T10                 +00000000000000000120328104                                    
0000080010120180716DEDE28-T10                 +00000000000000000120031204                                    
0000090010120180713IAACF-MD                   +00000000000000000000571702                                    
0000100010120180716IAACF-MD                   +00000000000000000000567302                                    
0000110010120180713IAACF-SA                   +00000000000000000000568002                                    
0000120010120180716IAACF-SA                   +00000000000000000000558002                                    
0000130010120180713IAARROZ-AV-R$              +00000000000000000000420002                                    
0000140010120180716IAARROZ-AV-R$              +00000000000000000000419402                                    
0000150010120180713IABOIDI-AV-R$              +00000000000000000001417002                                    
0000160010120180716IABOIDI-AV-R$              +00000000000000000001418002                                    
0000170010120180713IABOIDI-AV-US$             +00000000000000000000368002                                    
0000180010120180716IABOIDI-AV-US$             +00000000000000000000366602                                    
0000190010120180713IABOIDI-MD-R$              +00000000000000000001405302                                    
0000200010120180716IABOIDI-MD-R$              +00000000000000000001410902                                    
0000210010120180713IABOIDI-MD-US$             +00000000000000000000364502                                    
0000220010120180716IABOIDI-MD-US$             +00000000000000000000365902                                    
0000230010120180713IABOIDI-MN-R$              +00000000000000000001376602                                    
0000240010120180716IABOIDI-MN-R$              +00000000000000000001362602                                    
0000250010120180713IABOIDI-MX-R$              +00000000000000000001474202                                    
0000260010120180716IABOIDI-MX-R$              +00000000000000000001474702                                    
0000270010120180713IABZR-AV-R$                +00000000000000000000582903                                    
0000280010120180716IABZR-AV-R$                +00000000000000000000578003                                    
0000290010120180713IABZR-AV-R$/C              +00000000000000000011674302                                    
0000300010120180716IABZR-AV-R$/C              +00000000000000000011640402                                    
0000310010120180713IABZR-MD-R$                +00000000000000000000584703                                    
0000320010120180716IABZR-MD-R$                +00000000000000000000583503                                    
0000330010120180713IABZR-MD-R$/C              +00000000000000000117568403                                    
0000340010120180716IABZR-MD-R$/C              +00000000000000000117239003                                    
0000350010120180713IABZR-MN-R$/C              +00000000000000000010823802                                    
0000360010120180716IABZR-MN-R$/C              +00000000000000000010883102                                    
0000370010120180713IABZR-MX-R$/C              +00000000000000000012531002                                    
0000380010120180716IABZR-MX-R$/C              +00000000000000000012061702                                    
0000390010120180713IABZR-PZ-VPS               +00000000000000000002002802                                    
0000400010120180716IABZR-PZ-VPS               +00000000000000000002013802                                    
0000410010120180713IAETH-AV-R$/M3             +00000000000000000015350002                                    
0000420010120180716IAETH-AV-R$/M3             +00000000000000000015315002                                    
0000430010120180713IAETH-MD-R$/M3             +00000000000000000015370002                                    
0000440010120180716IAETH-MD-R$/M3             +00000000000000000015355002                                    
0000450010120180713IAMIL-AV-R$                +00000000000000000000367002                                    
0000460010120180716IAMIL-AV-R$                +00000000000000000000372202                                    
0000470010120180713IAMIL-AV-US$               +00000000000000000000095302                                    
0000480010120180716IAMIL-AV-US$               +00000000000000000000096202                                    
0000490010120180713IAMIL-MD-R$                +00000000000000000000367802                                    
0000500010120180716IAMIL-MD-R$                +00000000000000000000369802                                    
0000510010120180713IAMIL-PZ-R$                +00000000000000000000369602                                    
0000520010120180716IAMIL-PZ-R$                +00000000000000000000374902                                    
0000530010120180713IAMIL-PZ-VPZ               +00000000000000000000285502                                    
0000540010120180716IAMIL-PZ-VPZ               +00000000000000000000296602                                    
0000550010120180713IASOY-MD-US$               +00000000000000000000228302                                    
0000560010120180716IASOY-MD-US$               +00000000000000000000229202                                    
0000570010120180713IASOY-PA-US$               +00000000000000000000229002                                    
0000580010120180716IASOY-PA-US$               +00000000000000000000230302                                    
0000590010120180713IDIDI2003                  +00000000000000006312606402                                    
0000600010120180716IDIDI2003                  +00000000000000006314158302                                    
0000610010120180713IDIDI2009                  +00000000000000002563205302                                    
0000620010120180716IDIDI2009                  +00000000000000002563835402                                    
0000630010120180713MEDOF-T1                   +00000000000000000003874504                                    
0000640010120180716MEDOF-T1                   +00000000000000000003857904                                    
0000650010120180713MEDOF-T3                   +00000000000000000003874204                                    
0000660010120180716MEDOF-T3                   +00000000000000000003857604                                    
0000670010120180713MEDOL-T1                   +00000000000000000003874504                                    
0000680010120180716MEDOL-T1                   +00000000000000000003857904                                    
0000690010120180713MEDOL-T2                   +00000000000000000003873904                                    
0000700010120180716MEDOL-T2                   +00000000000000000003857304                                    
0000710010120180713MEDOL-T3                   +00000000000000000003874204                                    
0000720010120180716MEDOL-T3                   +00000000000000000003857604                                    
0000730010120180713RTABEV3-AJ                 +00000000000000000000184402                                    
0000740010120180716RTABEV3-AJ                 +00000000000000000000189502                                    
0000750010120180713RTABEV3-MN                 +00000000000000000000181702                                    
0000760010120180716RTABEV3-MN                 +00000000000000000000185302                                    
0000770010120180713RTABEV3-MX                 +00000000000000000000184802                                    
0000780010120180716RTABEV3-MX                 +00000000000000000000190302                                    
0000790010120180713RTABEV3-PA                 +00000000000000000000182502                                    
0000800010120180716RTABEV3-PA                 +00000000000000000000185302                                    
0000810010120180713RTABEV3-PF                 +00000000000000000000184402                                    
0000820010120180716RTABEV3-PF                 +00000000000000000000189502                                    
0000830010120180713RTABEV3-PM                 +00000000000000000000183102                                    
0000840010120180716RTABEV3-PM                 +00000000000000000000188502                                    
0000850010120180713RTAUD-PF                   +00000000000000000000741404                                    
0000860010120180716RTAUD-PF                   +00000000000000000000741704                                    
0000870010120180713RTAUD-T1                   +00000000000000002871400007                                    
0000880010120180716RTAUD-T1                   +00000000000000002861000007                                    
0000890010120180713RTAUD-T2                   +00000000000000002870200007                                    
0000900010120180716RTAUD-T2                   +00000000000000002860200007                                    
0000910010120180713RTB3SA3-AJ                 +00000000000000000000238202                                    
0000920010120180716RTB3SA3-AJ                 +00000000000000000000235002                                    
0000930010120180713RTB3SA3-MN                 +00000000000000000000230702                                    
0000940010120180716RTB3SA3-MN                 +00000000000000000000231002                                    
0000950010120180713RTB3SA3-MX                 +00000000000000000000238202                                    
0000960010120180716RTB3SA3-MX                 +00000000000000000000238002                                    
0000970010120180713RTB3SA3-PA                 +00000000000000000000231802                                    
0000980010120180716RTB3SA3-PA                 +00000000000000000000238002                                    
0000990010120180713RTB3SA3-PF                 +00000000000000000000238202                                    
0001000010120180716RTB3SA3-PF                 +00000000000000000000235002                                    
0001010010120180713RTB3SA3-PM                 +00000000000000000000234302                                    
0001020010120180716RTB3SA3-PM                 +00000000000000000000233702                                    
0001030010120180713RTBBAS3-AJ                 +00000000000000000000311302                                    
0001040010120180716RTBBAS3-AJ                 +00000000000000000000307902                                    
0001050010120180713RTBBAS3-MN                 +00000000000000000000301602                                    
0001060010120180716RTBBAS3-MN                 +00000000000000000000304502                                    
0001070010120180713RTBBAS3-MX                 +00000000000000000000311302                                    
0001080010120180716RTBBAS3-MX                 +00000000000000000000313702                                    
0001090010120180713RTBBAS3-PA                 +00000000000000000000303002                                    
0001100010120180716RTBBAS3-PA                 +00000000000000000000310802                                    
0001110010120180713RTBBAS3-PF                 +00000000000000000000311302                                    
0001120010120180716RTBBAS3-PF                 +00000000000000000000307902                                    
0001130010120180713RTBBAS3-PM                 +00000000000000000000307302                                    
0001140010120180716RTBBAS3-PM                 +00000000000000000000309502                                    
0001150010120180713RTBBDC4-AJ                 +00000000000000000000290702                                    
0001160010120180716RTBBDC4-AJ                 +00000000000000000000292002                                    
0001170010120180713RTBBDC4-MN                 +00000000000000000000282702                                    
0001180010120180716RTBBDC4-MN                 +00000000000000000000288102                                    
0001190010120180713RTBBDC4-MX                 +00000000000000000000291902                                    
0001200010120180716RTBBDC4-MX                 +00000000000000000000293202                                    
0001210010120180713RTBBDC4-PA                 +00000000000000000000284002                                    
0001220010120180716RTBBDC4-PA                 +00000000000000000000290402                                    
0001230010120180713RTBBDC4-PF                 +00000000000000000000290702                                    
0001240010120180716RTBBDC4-PF                 +00000000000000000000292002                                    
0001250010120180713RTBBDC4-PM                 +00000000000000000000288602                                    
0001260010120180716RTBBDC4-PM                 +00000000000000000000290802                                    
0001270010120180713RTBBSE3-AJ                 +00000000000000000000251902                                    
0001280010120180716RTBBSE3-AJ                 +00000000000000000000256002                                    
0001290010120180713RTBBSE3-MN                 +00000000000000000000248202                                    
0001300010120180716RTBBSE3-MN                 +00000000000000000000252502                                    
0001310010120180713RTBBSE3-MX                 +00000000000000000000252802                                    
0001320010120180716RTBBSE3-MX                 +00000000000000000000257302                                    
0001330010120180713RTBBSE3-PA                 +00000000000000000000250902                                    
0001340010120180716RTBBSE3-PA                 +00000000000000000000254002                                    
0001350010120180713RTBBSE3-PF                 +00000000000000000000251902                                    
0001360010120180716RTBBSE3-PF                 +00000000000000000000256002                                    
0001370010120180713RTBBSE3-PM                 +00000000000000000000250002                                    
0001380010120180716RTBBSE3-PM                 +00000000000000000000254802                                    
0001390010120180713RTBOV-MN                   +00000000000000000000728902                                    
0001400010120180716RTBOV-MN                   +00000000000000000000734502                                    
0001410010120180713RTBOV-MX                   +00000000000000000000740102                                    
0001420010120180716RTBOV-MX                   +00000000000000000000742602                                    
0001430010120180713RTBOV-PA                   +00000000000000000000733402                                    
0001440010120180716RTBOV-PA                   +00000000000000000000738702                                    
0001450010120180713RTBOV-PF                   +00000000000000000000740102                                    
0001460010120180716RTBOV-PF                   +00000000000000000000739502                                    
0001470010120180713RTBOV-PM                   +00000000000000000000736202                                    
0001480010120180716RTBOV-PM                   +00000000000000000000738102                                    
0001490010120180713RTBRFS3-AJ                 +00000000000000000000227802                                    
0001500010120180716RTBRFS3-AJ                 +00000000000000000000226002                                    
0001510010120180713RTBRFS3-MN                 +00000000000000000000226202                                    
0001520010120180716RTBRFS3-MN                 +00000000000000000000223002                                    
0001530010120180713RTBRFS3-MX                 +00000000000000000000232002                                    
0001540010120180716RTBRFS3-MX                 +00000000000000000000229902                                    
0001550010120180713RTBRFS3-PA                 +00000000000000000000232002                                    
0001560010120180716RTBRFS3-PA                 +00000000000000000000228002                                    
0001570010120180713RTBRFS3-PF                 +00000000000000000000227802                                    
0001580010120180716RTBRFS3-PF                 +00000000000000000000226002                                    
0001590010120180713RTBRFS3-PM                 +00000000000000000000227902                                    
0001600010120180716RTBRFS3-PM                 +00000000000000000000225702                                    
0001610010120180713RTBVMF3-AJ                 +00000000000000000000238202                                    
0001620010120180716RTBVMF3-AJ                 +00000000000000000000235002                                    
0001630010120180713RTBVMF3-MN                 +00000000000000000000230702                                    
0001640010120180716RTBVMF3-MN                 +00000000000000000000231002                                    
0001650010120180713RTBVMF3-MX                 +00000000000000000000238202                                    
0001660010120180716RTBVMF3-MX                 +00000000000000000000238002                                    
0001670010120180713RTBVMF3-PA                 +00000000000000000000231802                                    
0001680010120180716RTBVMF3-PA                 +00000000000000000000238002                                    
0001690010120180713RTBVMF3-PF                 +00000000000000000000238202                                    
0001700010120180716RTBVMF3-PF                 +00000000000000000000235002                                    
0001710010120180713RTBVMF3-PM                 +00000000000000000000234302                                    
0001720010120180716RTBVMF3-PM                 +00000000000000000000233702                                    
0001730010120180713RTCAD-PF                   +00000000000000000001316104                                    
0001740010120180716RTCAD-PF                   +00000000000000000001314404                                    
0001750010120180713RTCAD-T1                   +00000000000000002942400007                                    
0001760010120180716RTCAD-T1                   +00000000000000002938000007                                    
0001770010120180713RTCAD-T2                   +00000000000000002941000007                                    
0001780010120180716RTCAD-T2                   +00000000000000002936700007                                    
0001790010120180713RTCCRO3-AJ                 +00000000000000000000104002                                    
0001800010120180716RTCCRO3-AJ                 +00000000000000000000104102                                    
0001810010120180713RTCCRO3-MN                 +00000000000000000000104002                                    
0001820010120180716RTCCRO3-MN                 +00000000000000000000103302                                    
0001830010120180713RTCCRO3-MX                 +00000000000000000000105202                                    
0001840010120180716RTCCRO3-MX                 +00000000000000000000105802                                    
0001850010120180713RTCCRO3-PA                 +00000000000000000000104402                                    
0001860010120180716RTCCRO3-PA                 +00000000000000000000104102                                    
0001870010120180713RTCCRO3-PF                 +00000000000000000000104002                                    
0001880010120180716RTCCRO3-PF                 +00000000000000000000104102                                    
0001890010120180713RTCCRO3-PM                 +00000000000000000000104602                                    
0001900010120180716RTCCRO3-PM                 +00000000000000000000104202                                    
0001910010120180713RTCHF-PF                   +00000000000000000001002104                                    
0001920010120180716RTCHF-PF                   +00000000000000000000996604                                    
0001930010120180713RTCIEL3-AJ                 +00000000000000000000169002                                    
0001940010120180716RTCIEL3-AJ                 +00000000000000000000177002                                    
0001950010120180713RTCIEL3-MN                 +00000000000000000000151202                                    
0001960010120180716RTCIEL3-MN                 +00000000000000000000165602                                    
0001970010120180713RTCIEL3-MX                 +00000000000000000000169502                                    
0001980010120180716RTCIEL3-MX                 +00000000000000000000177002                                    
0001990010120180713RTCIEL3-PA                 +00000000000000000000155202                                    
0002000010120180716RTCIEL3-PA                 +00000000000000000000170002                                    
0002010010120180713RTCIEL3-PF                 +00000000000000000000169002                                    
0002020010120180716RTCIEL3-PF                 +00000000000000000000177002                                    
0002030010120180713RTCIEL3-PM                 +00000000000000000000162602                                    
0002040010120180716RTCIEL3-PM                 +00000000000000000000171302                                    
0002050010120180713RTCLP-PF                   +00000000000000000006507402                                    
0002060010120180716RTCLP-PF                   +00000000000000000006501302                                    
0002070010120180713RTCMO-SE-NCL               +00000000000000000005777102                                    
0002080010120180716RTCMO-SE-NCL               +00000000000000000005777102                                    
0002090010120180713RTCMO-SE-NCM               +00000000000000000005943302                                    
0002100010120180716RTCMO-SE-NCM               +00000000000000000005943302                                    
0002110010120180713RTCMO-SE-NCP               +00000000000000000005943302                                    
0002120010120180716RTCMO-SE-NCP               +00000000000000000005943302                                    
0002130010120180713RTCMO-SE-NECL              +00000000000000000005777102                                    
0002140010120180716RTCMO-SE-NECL              +00000000000000000005777102                                    
0002150010120180713RTCMO-SE-NECM              +00000000000000000005943302                                    
0002160010120180716RTCMO-SE-NECM              +00000000000000000005943302                                    
0002170010120180713RTCMO-SE-NECP              +00000000000000000005943302                                    
0002180010120180716RTCMO-SE-NECP              +00000000000000000005943302                                    
0002190010120180713RTCMO-SE-NEVM              +00000000000000000005883002                                    
0002200010120180716RTCMO-SE-NEVM              +00000000000000000005883002                                    
0002210010120180713RTCMO-SE-NVM               +00000000000000000005883002                                    
0002220010120180716RTCMO-SE-NVM               +00000000000000000005883002                                    
0002230010120180713RTCMO-SE-SCCL              +00000000000000000005777102                                    
0002240010120180716RTCMO-SE-SCCL              +00000000000000000005777102                                    
0002250010120180713RTCMO-SE-SCCM              +00000000000000000005943302                                    
0002260010120180716RTCMO-SE-SCCM              +00000000000000000005943302                                    
0002270010120180713RTCMO-SE-SCCP              +00000000000000000005943302                                    
0002280010120180716RTCMO-SE-SCCP              +00000000000000000005943302                                    
0002290010120180713RTCMO-SE-SCL               +00000000000000000005777102                                    
0002300010120180716RTCMO-SE-SCL               +00000000000000000005777102                                    
0002310010120180713RTCMO-SE-SCM               +00000000000000000005943302                                    
0002320010120180716RTCMO-SE-SCM               +00000000000000000005943302                                    
0002330010120180713RTCMO-SE-SCP               +00000000000000000005943302                                    
0002340010120180716RTCMO-SE-SCP               +00000000000000000005943302                                    
0002350010120180713RTCMO-SE-SCVM              +00000000000000000005883002                                    
0002360010120180716RTCMO-SE-SCVM              +00000000000000000005883002                                    
0002370010120180713RTCMO-SE-SVM               +00000000000000000005883002                                    
0002380010120180716RTCMO-SE-SVM               +00000000000000000005883002                                    
0002390010120180713RTCNI                      +00000000000000000000367002                                    
0002400010120180716RTCNI                      +00000000000000000000372202                                    
0002410010120180713RTCNY-PF                   +00000000000000000006691604                                    
0002420010120180716RTCNY-PF                   +00000000000000000006691104                                    
0002430010120180713RTCSNA3-AJ                 +00000000000000000000080202                                    
0002440010120180716RTCSNA3-AJ                 +00000000000000000000079502                                    
0002450010120180713RTCSNA3-MN                 +00000000000000000000079102                                    
0002460010120180716RTCSNA3-MN                 +00000000000000000000078602                                    
0002470010120180713RTCSNA3-MX                 +00000000000000000000081402                                    
0002480010120180716RTCSNA3-MX                 +00000000000000000000080902                                    
0002490010120180713RTCSNA3-PA                 +00000000000000000000080302                                    
0002500010120180716RTCSNA3-PA                 +00000000000000000000080702                                    
0002510010120180713RTCSNA3-PF                 +00000000000000000000080202                                    
0002520010120180716RTCSNA3-PF                 +00000000000000000000079502                                    
0002530010120180713RTCSNA3-PM                 +00000000000000000000080102                                    
0002540010120180716RTCSNA3-PM                 +00000000000000000000079602                                    
0002550010120180713RTCYRE3-AJ                 +00000000000000000000118802                                    
0002560010120180716RTCYRE3-AJ                 +00000000000000000000116202                                    
0002570010120180713RTCYRE3-MN                 +00000000000000000000117802                                    
0002580010120180716RTCYRE3-MN                 +00000000000000000000116202                                    
0002590010120180713RTCYRE3-MX                 +00000000000000000000121002                                    
0002600010120180716RTCYRE3-MX                 +00000000000000000000120202                                    
0002610010120180713RTCYRE3-PA                 +00000000000000000000120502                                    
0002620010120180716RTCYRE3-PA                 +00000000000000000000119402                                    
0002630010120180713RTCYRE3-PF                 +00000000000000000000118802                                    
0002640010120180716RTCYRE3-PF                 +00000000000000000000116202                                    
0002650010120180713RTCYRE3-PM                 +00000000000000000000119102                                    
0002660010120180716RTCYRE3-PM                 +00000000000000000000117602                                    
0002670010120180713RTDAU-W1                   +00000000000000000741050007                                    
0002680010120180716RTDAU-W1                   +00000000000000000741800007                                    
0002690010120180713RTDCA-W1                   +00000000000000001316450007                                    
0002700010120180716RTDCA-W1                   +00000000000000001312800007                                    
0002710010120180713RTDCH-W1                   +00000000000000001003450007                                    
0002720010120180716RTDCH-W1                   +00000000000000000998750007                                    
0002730010120180713RTDCL-W1                   +00000000000000647400000007                                    
0002740010120180716RTDCL-W1                   +00000000000000650655000007                                    
0002750010120180713RTDCN-W1                   +00000000000000006690600007                                    
0002760010120180716RTDCN-W1                   +00000000000000006684200007                                    
0002770010120180713RTDGB-W1                   +00000000000000001320100007                                    
0002780010120180716RTDGB-W1                   +00000000000000001322950007                                    
0002790010120180713RTDI1                      +00000000000000000000063902                                    
0002800010120180716RTDI1                      +00000000000000000000063902                                    
0002810010120180713RTDI1-RE                   +00000000000000000000063902                                    
0002820010120180716RTDI1-RE                   +00000000000000000000063902                                    
0002830010120180713RTDMX-W1                   +00000000000000018881750007                                    
0002840010120180716RTDMX-W1                   +00000000000000018871650007                                    
0002850010120180713RTDNZ-W1                   +00000000000000000676200007                                    
0002860010120180716RTDNZ-W1                   +00000000000000000677000007                                    
0002870010120180713RTDOL-C1                   +00000000000000000000079002                                    
0002880010120180716RTDOL-C1                   +00000000000000000000073002                                    
0002890010120180713RTDOL-CL                   +00000000000000000003863304                                    
0002900010120180716RTDOL-CL                   +00000000000000000003862904                                    
0002910010120180713RTDOL-D1                   +00000000000000000003851004                                    
0002920010120180716RTDOL-D1                   +00000000000000000003868404                                    
0002930010120180713RTDOL-D2                   +00000000000000000003851304                                    
0002940010120180716RTDOL-D2                   +00000000000000000003869104                                    
0002950010120180713RTDOL-PA                   +00000000000000000003885404                                    
0002960010120180716RTDOL-PA                   +00000000000000000003851304                                    
0002970010120180713RTDOL-T1                   +00000000000000000003874504                                    
0002980010120180716RTDOL-T1                   +00000000000000000003857904                                    
0002990010120180713RTDOL-T2                   +00000000000000000003873904                                    
0003000010120180716RTDOL-T2                   +00000000000000000003857304                                    
0003010010120180713RTDOL-T3                   +00000000000000000003874204                                    
0003020010120180716RTDOL-T3                   +00000000000000000003857604                                    
0003030010120180713RTDOL-W1                   +00000000000000003863050007                                    
0003040010120180716RTDOL-W1                   +00000000000000003866100007                                    
0003050010120180713RTDTR-W1                   +00000000000000004827150007                                    
0003060010120180716RTDTR-W1                   +00000000000000004835950007                                    
0003070010120180713RTDZA-W1                   +00000000000000013275000007                                    
0003080010120180716RTDZA-W1                   +00000000000000013236900007                                    
0003090010120180713RTEDO-B1                   +00000000000000001164300007                                    
0003100010120180716RTEDO-B1                   +00000000000000001172000007                                    
0003110010120180713RTEDO-W1                   +00000000000000001166750007                                    
0003120010120180716RTEDO-W1                   +00000000000000001170750007                                    
0003130010120180713RTEUR                      +00000000000000000001164304                                    
0003140010120180716RTEUR                      +00000000000000000001172004                                    
0003150010120180713RTFIN-MN                   +00000000000000000000770402                                    
0003160010120180716RTFIN-MN                   +00000000000000000000780402                                    
0003170010120180713RTFIN-MX                   +00000000000000000000784002                                    
0003180010120180716RTFIN-MX                   +00000000000000000000786602                                    
0003190010120180713RTFIN-PA                   +00000000000000000000770402                                    
0003200010120180716RTFIN-PA                   +00000000000000000000782302                                    
0003210010120180713RTFIN-PF                   +00000000000000000000784002                                    
0003220010120180716RTFIN-PF                   +00000000000000000000784202                                    
0003230010120180713RTFIN-PM                   +00000000000000000000776102                                    
0003240010120180716RTFIN-PM                   +00000000000000000000782602                                    
0003250010120180713RTFTS-BR                   +00000000000000000005024400                                    
0003260010120180716RTFTS-BR                   +00000000000000000004933900                                    
0003270010120180713RTGBP-PF                   +00000000000000000001322804                                    
0003280010120180716RTGBP-PF                   +00000000000000000001323304                                    
0003290010120180713RTGBP-T1                   +00000000000000005120900007                                    
0003300010120180716RTGBP-T1                   +00000000000000005106700007                                    
0003310010120180713RTGBP-T2                   +00000000000000005118600007                                    
0003320010120180716RTGBP-T2                   +00000000000000005105500007                                    
0003330010120180713RTGGBR4-AJ                 +00000000000000000000155102                                    
0003340010120180716RTGGBR4-AJ                 +00000000000000000000157302                                    
0003350010120180713RTGGBR4-MN                 +00000000000000000000154902                                    
0003360010120180716RTGGBR4-MN                 +00000000000000000000152902                                    
0003370010120180713RTGGBR4-MX                 +00000000000000000000158302                                    
0003380010120180716RTGGBR4-MX                 +00000000000000000000157302                                    
0003390010120180713RTGGBR4-PA                 +00000000000000000000156802                                    
0003400010120180716RTGGBR4-PA                 +00000000000000000000155102                                    
0003410010120180713RTGGBR4-PF                 +00000000000000000000155102                                    
0003420010120180716RTGGBR4-PF                 +00000000000000000000157302                                    
0003430010120180713RTGGBR4-PM                 +00000000000000000000156202                                    
0003440010120180716RTGGBR4-PM                 +00000000000000000000155202                                    
0003450010120180713RTGOAU4-AJ                 +00000000000000000000071502                                    
0003460010120180716RTGOAU4-AJ                 +00000000000000000000072002                                    
0003470010120180713RTGOAU4-MN                 +00000000000000000000071102                                    
0003480010120180716RTGOAU4-MN                 +00000000000000000000070802                                    
0003490010120180713RTGOAU4-MX                 +00000000000000000000072802                                    
0003500010120180716RTGOAU4-MX                 +00000000000000000000072302                                    
0003510010120180713RTGOAU4-PA                 +00000000000000000000072002                                    
0003520010120180716RTGOAU4-PA                 +00000000000000000000071802                                    
0003530010120180713RTGOAU4-PF                 +00000000000000000000071502                                    
0003540010120180716RTGOAU4-PF                 +00000000000000000000072002                                    
0003550010120180713RTGOAU4-PM                 +00000000000000000000071902                                    
0003560010120180716RTGOAU4-PM                 +00000000000000000000071702                                    
0003570010120180713RTGOV-MN                   +00000000000000000000316702                                    
0003580010120180716RTGOV-MN                   +00000000000000000000320502                                    
0003590010120180713RTGOV-MX                   +00000000000000000000321602                                    
0003600010120180716RTGOV-MX                   +00000000000000000000320902                                    
0003610010120180713RTGOV-PA                   +00000000000000000000317802                                    
0003620010120180716RTGOV-PA                   +00000000000000000000320902                                    
0003630010120180713RTGOV-PF                   +00000000000000000000321202                                    
0003640010120180716RTGOV-PF                   +00000000000000000000320502                                    
0003650010120180713RTGOV-PM                   +00000000000000000000319502                                    
0003660010120180716RTGOV-PM                   +00000000000000000000320702                                    
0003670010120180713RTHAN-BR                   +00000000000000000002852500                                    
0003680010120180716RTHAN-BR                   +00000000000000000002854000                                    
0003690010120180713RTIBR-PA                   +00000000000000000001269500                                    
0003700010120180716RTIBR-PA                   +00000000000000000001281500                                    
0003710010120180713RTIBR-PF                   +00000000000000000001281700                                    
0003720010120180716RTIBR-PF                   +00000000000000000001281900                                    
0003730010120180713RTIBR-PL                   +00000000000000000001278900                                    
0003740010120180716RTIBR-PL                   +00000000000000000001278200                                    
0003750010120180713RTIBR-PM                   +00000000000000000001275500                                    
0003760010120180716RTIBR-PM                   +00000000000000000001278500                                    
0003770010120180713RTIBV-MN                   +00000000000000000007555300                                    
0003780010120180716RTIBV-MN                   +00000000000000000007612900                                    
0003790010120180713RTIBV-MX                   +00000000000000000007668200                                    
0003800010120180716RTIBV-MX                   +00000000000000000007692300                                    
0003810010120180713RTIBV-PA                   +00000000000000000007585600                                    
0003820010120180716RTIBV-PA                   +00000000000000000007658700                                    
0003830010120180713RTIBV-PF                   +00000000000000000007659400                                    
0003840010120180716RTIBV-PF                   +00000000000000000007665200                                    
0003850010120180713RTIBV-PL                   +00000000000000000007642600                                    
0003860010120180716RTIBV-PL                   +00000000000000000007643100                                    
0003870010120180713RTIBV-PM                   +00000000000000000007621600                                    
0003880010120180716RTIBV-PM                   +00000000000000000007645100                                    
0003890010120180713RTIBX-MN                   +00000000000000000001264300                                    
0003900010120180716RTIBX-MN                   +00000000000000000001272900                                    
0003910010120180713RTIBX-MX                   +00000000000000000001283200                                    
0003920010120180716RTIBX-MX                   +00000000000000000001286400                                    
0003930010120180713RTIBX-PA                   +00000000000000000001269500                                    
0003940010120180716RTIBX-PA                   +00000000000000000001281500                                    
0003950010120180713RTIBX-PF                   +00000000000000000001281700                                    
0003960010120180716RTIBX-PF                   +00000000000000000001281900                                    
0003970010120180713RTIBX-PL                   +00000000000000000001278900                                    
0003980010120180716RTIBX-PL                   +00000000000000000001278200                                    
0003990010120180713RTIBX-PM                   +00000000000000000001275500                                    
0004000010120180716RTIBX-PM                   +00000000000000000001278500                                    
0004010010120180713RTIDI-03                   +00000000000000006312606402                                    
0004020010120180716RTIDI-03                   +00000000000000006314158302                                    
0004030010120180713RTIDI-09                   +00000000000000002563205302                                    
0004040010120180716RTIDI-09                   +00000000000000002563835402                                    
0004050010120180713RTIND-PA                   +00000000000000000007585600                                    
0004060010120180716RTIND-PA                   +00000000000000000007658700                                    
0004070010120180713RTIND-PF                   +00000000000000000007659400                                    
0004080010120180716RTIND-PF                   +00000000000000000007665200                                    
0004090010120180713RTIND-PL                   +00000000000000000007642600                                    
0004100010120180716RTIND-PL                   +00000000000000000007643100                                    
0004110010120180713RTIND-PM                   +00000000000000000007621600                                    
0004120010120180716RTIND-PM                   +00000000000000000007645100                                    
0004130010120180713RTIRF-DE                   +00000000000001123094155806                                    
0004140010120180713RTISE-05                   +00000000000000004439725202                                    
0004150010120180716RTISE-05                   +00000000000000004440818202                                    
0004160010120180713RTITC-12                   +00000000000000001911850802                                    
0004170010120180716RTITC-12                   +00000000000000001912321502                                    
0004180010120180713RTITSA4-AJ                 +00000000000000000000101302                                    
0004190010120180716RTITSA4-AJ                 +00000000000000000000101902                                    
0004200010120180713RTITSA4-MN                 +00000000000000000000098602                                    
0004210010120180716RTITSA4-MN                 +00000000000000000000100302                                    
0004220010120180713RTITSA4-MX                 +00000000000000000000101402                                    
0004230010120180716RTITSA4-MX                 +00000000000000000000102402                                    
0004240010120180713RTITSA4-PA                 +00000000000000000000099402                                    
0004250010120180716RTITSA4-PA                 +00000000000000000000101102                                    
0004260010120180713RTITSA4-PF                 +00000000000000000000101302                                    
0004270010120180716RTITSA4-PF                 +00000000000000000000101902                                    
0004280010120180713RTITSA4-PM                 +00000000000000000000100302                                    
0004290010120180716RTITSA4-PM                 +00000000000000000000101302                                    
0004300010120180713RTITUB4-AJ                 +00000000000000000000442602                                    
0004310010120180716RTITUB4-AJ                 +00000000000000000000441002                                    
0004320010120180713RTITUB4-MN                 +00000000000000000000429302                                    
0004330010120180716RTITUB4-MN                 +00000000000000000000437102                                    
0004340010120180713RTITUB4-MX                 +00000000000000000000442702                                    
0004350010120180716RTITUB4-MX                 +00000000000000000000444602                                    
0004360010120180713RTITUB4-PA                 +00000000000000000000429302                                    
0004370010120180716RTITUB4-PA                 +00000000000000000000441902                                    
0004380010120180713RTITUB4-PF                 +00000000000000000000442602                                    
0004390010120180716RTITUB4-PF                 +00000000000000000000441002                                    
0004400010120180713RTITUB4-PM                 +00000000000000000000437202                                    
0004410010120180716RTITUB4-PM                 +00000000000000000000440402                                    
0004420010120180713RTJBSS3-AJ                 +00000000000000000000094002                                    
0004430010120180716RTJBSS3-AJ                 +00000000000000000000096502                                    
0004440010120180713RTJBSS3-MN                 +00000000000000000000093302                                    
0004450010120180716RTJBSS3-MN                 +00000000000000000000093502                                    
0004460010120180713RTJBSS3-MX                 +00000000000000000000095602                                    
0004470010120180716RTJBSS3-MX                 +00000000000000000000096502                                    
0004480010120180713RTJBSS3-PA                 +00000000000000000000094802                                    
0004490010120180716RTJBSS3-PA                 +00000000000000000000093802                                    
0004500010120180713RTJBSS3-PF                 +00000000000000000000094002                                    
0004510010120180716RTJBSS3-PF                 +00000000000000000000096502                                    
0004520010120180713RTJBSS3-PM                 +00000000000000000000094202                                    
0004530010120180716RTJBSS3-PM                 +00000000000000000000095102                                    
0004540010120180713RTJPY-NY                   +00000000000000001123300005                                    
0004550010120180716RTJPY-NY                   +00000000000000001122800005                                    
0004560010120180713RTJPY-PA                   +00000000000000000003454006                                    
0004570010120180716RTJPY-PA                   +00000000000000000003429006                                    
0004580010120180713RTJPY-T1                   +00000000000000000003448006                                    
0004590010120180716RTJPY-T1                   +00000000000000000003436006                                    
0004600010120180713RTJPY-T2                   +00000000000000000003447006                                    
0004610010120180716RTJPY-T2                   +00000000000000000003435006                                    
0004620010120180713RTKLBN11-AJ                +00000000000000000000197202                                    
0004630010120180716RTKLBN11-AJ                +00000000000000000000199702                                    
0004640010120180713RTKLBN11-MN                +00000000000000000000194402                                    
0004650010120180716RTKLBN11-MN                +00000000000000000000197402                                    
0004660010120180713RTKLBN11-MX                +00000000000000000000198902                                    
0004670010120180716RTKLBN11-MX                +00000000000000000000200002                                    
0004680010120180713RTKLBN11-PA                +00000000000000000000194402                                    
0004690010120180716RTKLBN11-PA                +00000000000000000000200002                                    
0004700010120180713RTKLBN11-PF                +00000000000000000000197202                                    
0004710010120180716RTKLBN11-PF                +00000000000000000000199702                                    
0004720010120180713RTKLBN11-PM                +00000000000000000000197502                                    
0004730010120180716RTKLBN11-PM                +00000000000000000000199102                                    
0004740010120180713RTKLBN-AJ                  +00000000000000000000197202                                    
0004750010120180716RTKLBN-AJ                  +00000000000000000000199702                                    
0004760010120180713RTKLBN-MN                  +00000000000000000000194402                                    
0004770010120180716RTKLBN-MN                  +00000000000000000000197402                                    
0004780010120180713RTKLBN-MX                  +00000000000000000000198902                                    
0004790010120180716RTKLBN-MX                  +00000000000000000000200002                                    
0004800010120180713RTKLBN-PA                  +00000000000000000000194402                                    
0004810010120180716RTKLBN-PA                  +00000000000000000000200002                                    
0004820010120180713RTKLBN-PF                  +00000000000000000000197202                                    
0004830010120180716RTKLBN-PF                  +00000000000000000000199702                                    
0004840010120180713RTKLBN-PM                  +00000000000000000000197502                                    
0004850010120180716RTKLBN-PM                  +00000000000000000000199102                                    
0004860010120180713RTKROT3-AJ                 +00000000000000000000112202                                    
0004870010120180716RTKROT3-AJ                 +00000000000000000000113002                                    
0004880010120180713RTKROT3-MN                 +00000000000000000000109902                                    
0004890010120180716RTKROT3-MN                 +00000000000000000000111702                                    
0004900010120180713RTKROT3-MX                 +00000000000000000000112802                                    
0004910010120180716RTKROT3-MX                 +00000000000000000000113602                                    
0004920010120180713RTKROT3-PA                 +00000000000000000000111402                                    
0004930010120180716RTKROT3-PA                 +00000000000000000000112002                                    
0004940010120180713RTKROT3-PF                 +00000000000000000000112202                                    
0004950010120180716RTKROT3-PF                 +00000000000000000000113002                                    
0004960010120180713RTKROT3-PM                 +00000000000000000000111102                                    
0004970010120180716RTKROT3-PM                 +00000000000000000000112502                                    
0004980010120180713RTLAME4-AJ                 +00000000000000000000176102                                    
0004990010120180716RTLAME4-AJ                 +00000000000000000000175102                                    
0005000010120180713RTLAME4-MN                 +00000000000000000000167902                                    
0005010010120180716RTLAME4-MN                 +00000000000000000000172102                                    
0005020010120180713RTLAME4-MX                 +00000000000000000000176102                                    
0005030010120180716RTLAME4-MX                 +00000000000000000000179002                                    
0005040010120180713RTLAME4-PA                 +00000000000000000000171902                                    
0005050010120180716RTLAME4-PA                 +00000000000000000000175502                                    
0005060010120180713RTLAME4-PF                 +00000000000000000000176102                                    
0005070010120180716RTLAME4-PF                 +00000000000000000000175102                                    
0005080010120180713RTLAME4-PM                 +00000000000000000000173902                                    
0005090010120180716RTLAME4-PM                 +00000000000000000000176002                                    
0005100010120180713RTLIBOR                    +00000000000000000000207203                                    
0005110010120180716RTLIBOR                    +00000000000000000000207303                                    
0005120010120180713RTMGLU3-AJ                 +00000000000000000001256402                                    
0005130010120180716RTMGLU3-AJ                 +00000000000000000001277402                                    
0005140010120180713RTMGLU3-MN                 +00000000000000000001228802                                    
0005150010120180716RTMGLU3-MN                 +00000000000000000001251202                                    
0005160010120180713RTMGLU3-MX                 +00000000000000000001275102                                    
0005170010120180716RTMGLU3-MX                 +00000000000000000001287102                                    
0005180010120180713RTMGLU3-PA                 +00000000000000000001236002                                    
0005190010120180716RTMGLU3-PA                 +00000000000000000001260002                                    
0005200010120180713RTMGLU3-PF                 +00000000000000000001256402                                    
0005210010120180716RTMGLU3-PF                 +00000000000000000001277402                                    
0005220010120180713RTMGLU3-PM                 +00000000000000000001257202                                    
0005230010120180716RTMGLU3-PM                 +00000000000000000001270402                                    
0005240010120180713RTMIC-BR                   +00000000000000000000234600                                    
0005250010120180716RTMIC-BR                   +00000000000000000000233400                                    
0005260010120180713RTMXN-PF                   +00000000000000000018952004                                    
0005270010120180716RTMXN-PF                   +00000000000000000018832104                                    
0005280010120180713RTMXN-T1                   +00000000000000000205200007                                    
0005290010120180716RTMXN-T1                   +00000000000000000204700007                                    
0005300010120180713RTMXN-T2                   +00000000000000000205000007                                    
0005310010120180716RTMXN-T2                   +00000000000000000204700007                                    
0005320010120180713RTNZD-PF                   +00000000000000000000676004                                    
0005330010120180716RTNZD-PF                   +00000000000000000000677004                                    
0005340010120180713RTPETR4-AJ                 +00000000000000000000181102                                    
0005350010120180716RTPETR4-AJ                 +00000000000000000000178802                                    
0005360010120180713RTPETR4-MN                 +00000000000000000000177802                                    
0005370010120180716RTPETR4-MN                 +00000000000000000000176002                                    
0005380010120180713RTPETR4-MX                 +00000000000000000000181802                                    
0005390010120180716RTPETR4-MX                 +00000000000000000000179802                                    
0005400010120180713RTPETR4-PA                 +00000000000000000000179902                                    
0005410010120180716RTPETR4-PA                 +00000000000000000000179502                                    
0005420010120180713RTPETR4-PF                 +00000000000000000000181102                                    
0005430010120180716RTPETR4-PF                 +00000000000000000000178802                                    
0005440010120180713RTPETR4-PM                 +00000000000000000000180202                                    
0005450010120180716RTPETR4-PM                 +00000000000000000000177902                                    
0005460010120180713RTPLD-ME-N                 +00000000000000000004419602                                    
0005470010120180716RTPLD-ME-N                 +00000000000000000004419602                                    
0005480010120180713RTPLD-ME-NE                +00000000000000000004419602                                    
0005490010120180716RTPLD-ME-NE                +00000000000000000004419602                                    
0005500010120180713RTPLD-ME-S                 +00000000000000000004728702                                    
0005510010120180716RTPLD-ME-S                 +00000000000000000004728702                                    
0005520010120180713RTPLD-ME-SECO              +00000000000000000004728702                                    
0005530010120180716RTPLD-ME-SECO              +00000000000000000004728702                                    
0005540010120180713RTPLD-SE-NCCL              +00000000000000000005051802                                    
0005550010120180716RTPLD-SE-NCCL              +00000000000000000005051802                                    
0005560010120180713RTPLD-SE-NCCM              +00000000000000000005051802                                    
0005570010120180716RTPLD-SE-NCCM              +00000000000000000005051802                                    
0005580010120180713RTPLD-SE-NCCP              +00000000000000000005051802                                    
0005590010120180716RTPLD-SE-NCCP              +00000000000000000005051802                                    
0005600010120180713RTPLD-SE-NCM               +00000000000000000005051802                                    
0005610010120180716RTPLD-SE-NCM               +00000000000000000005051802                                    
0005620010120180713RTPLD-SE-NECCL             +00000000000000000005051802                                    
0005630010120180716RTPLD-SE-NECCL             +00000000000000000005051802                                    
0005640010120180713RTPLD-SE-NECCM             +00000000000000000005051802                                    
0005650010120180716RTPLD-SE-NECCM             +00000000000000000005051802                                    
0005660010120180713RTPLD-SE-NECCP             +00000000000000000005051802                                    
0005670010120180716RTPLD-SE-NECCP             +00000000000000000005051802                                    
0005680010120180713RTPLD-SE-NECM              +00000000000000000005051802                                    
0005690010120180716RTPLD-SE-NECM              +00000000000000000005051802                                    
0005700010120180713RTPLD-SE-SCCC              +00000000000000000005051802                                    
0005710010120180716RTPLD-SE-SCCC              +00000000000000000005051802                                    
0005720010120180713RTPLD-SE-SCCCL             +00000000000000000005051802                                    
0005730010120180716RTPLD-SE-SCCCL             +00000000000000000005051802                                    
0005740010120180713RTPLD-SE-SCCCM             +00000000000000000005051802                                    
0005750010120180716RTPLD-SE-SCCCM             +00000000000000000005051802                                    
0005760010120180713RTPLD-SE-SCCCP             +00000000000000000005051802                                    
0005770010120180716RTPLD-SE-SCCCP             +00000000000000000005051802                                    
0005780010120180713RTPLD-SE-SCCL              +00000000000000000005051802                                    
0005790010120180716RTPLD-SE-SCCL              +00000000000000000005051802                                    
0005800010120180713RTPLD-SE-SCCM              +00000000000000000005051802                                    
0005810010120180716RTPLD-SE-SCCM              +00000000000000000005051802                                    
0005820010120180713RTPLD-SE-SCCP              +00000000000000000005051802                                    
0005830010120180716RTPLD-SE-SCCP              +00000000000000000005051802                                    
0005840010120180713RTPLD-SE-SCM               +00000000000000000005051802                                    
0005850010120180716RTPLD-SE-SCM               +00000000000000000005051802                                    
0005860010120180713RTPRT                      +00000000000000000069427903                                    
0005870010120180716RTPRT                      +00000000000000000069438903                                    
0005880010120180713RTPRTIPCA                  +00000000000000000050414502                                    
0005890010120180716RTPRTIPCA                  +00000000000000000050444602                                    
0005900010120180713RTRENT3-AJ                 +00000000000000000000237302                                    
0005910010120180716RTRENT3-AJ                 +00000000000000000000233902                                    
0005920010120180713RTRENT3-MN                 +00000000000000000000227902                                    
0005930010120180716RTRENT3-MN                 +00000000000000000000233702                                    
0005940010120180713RTRENT3-MX                 +00000000000000000000239802                                    
0005950010120180716RTRENT3-MX                 +00000000000000000000241102                                    
0005960010120180713RTRENT3-PA                 +00000000000000000000228702                                    
0005970010120180716RTRENT3-PA                 +00000000000000000000239102                                    
0005980010120180713RTRENT3-PF                 +00000000000000000000237302                                    
0005990010120180716RTRENT3-PF                 +00000000000000000000233902                                    
0006000010120180713RTRENT3-PM                 +00000000000000000000234802                                    
0006010010120180716RTRENT3-PM                 +00000000000000000000237102                                    
0006020010120180713RTREU-PA                   +00000000000000004525300007                                    
0006030010120180716RTREU-PA                   +00000000000000004511000007                                    
0006040010120180713RTREU-PF                   +00000000000000000001167704                                    
0006050010120180716RTREU-PF                   +00000000000000000001171404                                    
0006060010120180713RTREU-T1                   +00000000000000004521200007                                    
0006070010120180716RTREU-T1                   +00000000000000004519100007                                    
0006080010120180713RTREU-T2                   +00000000000000004518900007                                    
0006090010120180716RTREU-T2                   +00000000000000004516500007                                    
0006100010120180713RTREU-T3                   +00000000000000004511080307                                    
0006110010120180716RTREU-T3                   +00000000000000004521458807                                    
0006120010120180713RTSEL                      +00000000000000000000064002                                    
0006130010120180716RTSEL                      +00000000000000000000064002                                    
0006140010120180713RTSEL-12                   +00000000000000000000064002                                    
0006150010120180716RTSEL-12                   +00000000000000000000064002                                    
0006160010120180713RTSEL-RE                   +00000000000000000000064002                                    
0006170010120180716RTSEL-RE                   +00000000000000000000064002                                    
0006180010120180713RTSUS-MN                   +00000000000000000000275102                                    
0006190010120180716RTSUS-MN                   +00000000000000000000280202                                    
0006200010120180713RTSUS-MX                   +00000000000000000000280802                                    
0006210010120180716RTSUS-MX                   +00000000000000000000280502                                    
0006220010120180713RTSUS-PA                   +00000000000000000000277102                                    
0006230010120180716RTSUS-PA                   +00000000000000000000280202                                    
0006240010120180713RTSUS-PF                   +00000000000000000000280402                                    
0006250010120180716RTSUS-PF                   +00000000000000000000280502                                    
0006260010120180713RTSUS-PM                   +00000000000000000000279002                                    
0006270010120180716RTSUS-PM                   +00000000000000000000280502                                    
0006280010120180713RTTBF01                    +00000000000000000000507004                                    
0006290010120180716RTTBF01                    +00000000000000000000507004                                    
0006300010120180713RTTBF02                    +00000000000000000000530204                                    
0006310010120180716RTTBF02                    +00000000000000000000530204                                    
0006320010120180713RTTBF03                    +00000000000000000000529404                                    
0006330010120180716RTTBF03                    +00000000000000000000529404                                    
0006340010120180713RTTBF04                    +00000000000000000000532404                                    
0006350010120180716RTTBF04                    +00000000000000000000532404                                    
0006360010120180713RTTBF05                    +00000000000000000000510604                                    
0006370010120180716RTTBF05                    +00000000000000000000510604                                    
0006380010120180713RTTBF06                    +00000000000000000000487904                                    
0006390010120180716RTTBF06                    +00000000000000000000487904                                    
0006400010120180713RTTBF07                    +00000000000000000000486304                                    
0006410010120180716RTTBF07                    +00000000000000000000486304                                    
0006420010120180713RTTBF08                    +00000000000000000000509504                                    
0006430010120180716RTTBF08                    +00000000000000000000509504                                    
0006440010120180713RTTBF09                    +00000000000000000000532704                                    
0006450010120180716RTTBF09                    +00000000000000000000532704                                    
0006460010120180713RTTBF10                    +00000000000000000000532704                                    
0006470010120180716RTTBF10                    +00000000000000000000532704                                    
0006480010120180713RTTBF11                    +00000000000000000000532704                                    
0006490010120180716RTTBF11                    +00000000000000000000532704                                    
0006500010120180713RTTBF12                    +00000000000000000000510204                                    
0006510010120180716RTTBF12                    +00000000000000000000510204                                    
0006520010120180713RTTBF13                    +00000000000000000000487304                                    
0006530010120180716RTTBF13                    +00000000000000000000487304                                    
0006540010120180713RTTBF14                    +00000000000000000000525204                                    
0006550010120180713RTTBF15                    +00000000000000000000509304                                    
0006560010120180713RTTBF16                    +00000000000000000000486304                                    
0006570010120180713RTTBF17                    +00000000000000000000511404                                    
0006580010120180716RTTBF17                    +00000000000000000000511404                                    
0006590010120180713RTTBF18                    +00000000000000000000536504                                    
0006600010120180716RTTBF18                    +00000000000000000000536504                                    
0006610010120180713RTTBF19                    +00000000000000000000518704                                    
0006620010120180716RTTBF19                    +00000000000000000000518704                                    
0006630010120180713RTTBF20                    +00000000000000000000514704                                    
0006640010120180716RTTBF20                    +00000000000000000000514704                                    
0006650010120180713RTTBF21                    +00000000000000000000514304                                    
0006660010120180716RTTBF21                    +00000000000000000000514304                                    
0006670010120180713RTTBF22                    +00000000000000000000490504                                    
0006680010120180716RTTBF22                    +00000000000000000000490504                                    
0006690010120180713RTTBF23                    +00000000000000000000465904                                    
0006700010120180716RTTBF23                    +00000000000000000000465904                                    
0006710010120180713RTTBF24                    +00000000000000000000489304                                    
0006720010120180716RTTBF24                    +00000000000000000000489304                                    
0006730010120180713RTTBF25                    +00000000000000000000512804                                    
0006740010120180716RTTBF25                    +00000000000000000000512804                                    
0006750010120180713RTTBF26                    +00000000000000000000510604                                    
0006760010120180716RTTBF26                    +00000000000000000000510604                                    
0006770010120180713RTTBF27                    +00000000000000000000510504                                    
0006780010120180716RTTBF27                    +00000000000000000000510504                                    
0006790010120180713RTTBF28                    +00000000000000000000509204                                    
0006800010120180716RTTBF28                    +00000000000000000000509204                                    
0006810010120180713RTTBF29                    +00000000000000000000484404                                    
0006820010120180716RTTBF29                    +00000000000000000000484404                                    
0006830010120180713RTTBF30                    +00000000000000000000460804                                    
0006840010120180716RTTBF30                    +00000000000000000000460804                                    
0006850010120180713RTTBF31                    +00000000000000000000485904                                    
0006860010120180716RTTBF31                    +00000000000000000000485904                                    
0006870010120180713RTTJ3                      +00000000000000000000065402                                    
0006880010120180716RTTJ3                      +00000000000000000000065002                                    
0006890010120180713RTTJ6                      +00000000000000000000068502                                    
0006900010120180716RTTJ6                      +00000000000000000000068302                                    
0006910010120180713RTTJL                      +00000000000000000000065602                                    
0006920010120180716RTTJL                      +00000000000000000000065602                                    
0006930010120180713RTTR 01                    +00000000000000000000000004                                    
0006940010120180716RTTR 01                    +00000000000000000000000004                                    
0006950010120180713RTTR 02                    +00000000000000000000000004                                    
0006960010120180716RTTR 02                    +00000000000000000000000004                                    
0006970010120180713RTTR 03                    +00000000000000000000000004                                    
0006980010120180716RTTR 03                    +00000000000000000000000004                                    
0006990010120180713RTTR 04                    +00000000000000000000000004                                    
0007000010120180716RTTR 04                    +00000000000000000000000004                                    
0007010010120180713RTTR 05                    +00000000000000000000000004                                    
0007020010120180716RTTR 05                    +00000000000000000000000004                                    
0007030010120180713RTTR 06                    +00000000000000000000000004                                    
0007040010120180716RTTR 06                    +00000000000000000000000004                                    
0007050010120180713RTTR 07                    +00000000000000000000000004                                    
0007060010120180716RTTR 07                    +00000000000000000000000004                                    
0007070010120180713RTTR 08                    +00000000000000000000000004                                    
0007080010120180716RTTR 08                    +00000000000000000000000004                                    
0007090010120180713RTTR 09                    +00000000000000000000000004                                    
0007100010120180716RTTR 09                    +00000000000000000000000004                                    
0007110010120180713RTTR 10                    +00000000000000000000000004                                    
0007120010120180716RTTR 10                    +00000000000000000000000004                                    
0007130010120180713RTTR 11                    +00000000000000000000000004                                    
0007140010120180716RTTR 11                    +00000000000000000000000004                                    
0007150010120180713RTTR 12                    +00000000000000000000000004                                    
0007160010120180716RTTR 12                    +00000000000000000000000004                                    
0007170010120180713RTTR 13                    +00000000000000000000000004                                    
0007180010120180716RTTR 13                    +00000000000000000000000004                                    
0007190010120180713RTTR 14                    +00000000000000000000000004                                    
0007200010120180713RTTR 15                    +00000000000000000000000004                                    
0007210010120180713RTTR 16                    +00000000000000000000000004                                    
0007220010120180713RTTR 17                    +00000000000000000000000004                                    
0007230010120180716RTTR 17                    +00000000000000000000000004                                    
0007240010120180713RTTR 18                    +00000000000000000000000004                                    
0007250010120180716RTTR 18                    +00000000000000000000000004                                    
0007260010120180713RTTR 19                    +00000000000000000000000004                                    
0007270010120180716RTTR 19                    +00000000000000000000000004                                    
0007280010120180713RTTR 20                    +00000000000000000000000004                                    
0007290010120180716RTTR 20                    +00000000000000000000000004                                    
0007300010120180713RTTR 21                    +00000000000000000000000004                                    
0007310010120180716RTTR 21                    +00000000000000000000000004                                    
0007320010120180713RTTR 22                    +00000000000000000000000004                                    
0007330010120180716RTTR 22                    +00000000000000000000000004                                    
0007340010120180713RTTR 23                    +00000000000000000000000004                                    
0007350010120180716RTTR 23                    +00000000000000000000000004                                    
0007360010120180713RTTR 24                    +00000000000000000000000004                                    
0007370010120180716RTTR 24                    +00000000000000000000000004                                    
0007380010120180713RTTR 25                    +00000000000000000000000004                                    
0007390010120180716RTTR 25                    +00000000000000000000000004                                    
0007400010120180713RTTR 26                    +00000000000000000000000004                                    
0007410010120180716RTTR 26                    +00000000000000000000000004                                    
0007420010120180713RTTR 27                    +00000000000000000000000004                                    
0007430010120180716RTTR 27                    +00000000000000000000000004                                    
0007440010120180713RTTR 28                    +00000000000000000000000004                                    
0007450010120180716RTTR 28                    +00000000000000000000000004                                    
0007460010120180713RTTR 29                    +00000000000000000000000004                                    
0007470010120180716RTTR 29                    +00000000000000000000000004                                    
0007480010120180713RTTR 30                    +00000000000000000000000004                                    
0007490010120180716RTTR 30                    +00000000000000000000000004                                    
0007500010120180713RTTR 31                    +00000000000000000000000004                                    
0007510010120180716RTTR 31                    +00000000000000000000000004                                    
0007520010120180713RTTRY-PF                   +00000000000000000004851804                                    
0007530010120180716RTTRY-PF                   +00000000000000000004845004                                    
0007540010120180713RTUGPA3-AJ                 +00000000000000000000429302                                    
0007550010120180716RTUGPA3-AJ                 +00000000000000000000421402                                    
0007560010120180713RTUGPA3-MN                 +00000000000000000000428202                                    
0007570010120180716RTUGPA3-MN                 +00000000000000000000415402                                    
0007580010120180713RTUGPA3-MX                 +00000000000000000000455402                                    
0007590010120180716RTUGPA3-MX                 +00000000000000000000431102                                    
0007600010120180713RTUGPA3-PA                 +00000000000000000000454902                                    
0007610010120180716RTUGPA3-PA                 +00000000000000000000430402                                    
0007620010120180713RTUGPA3-PF                 +00000000000000000000429302                                    
0007630010120180716RTUGPA3-PF                 +00000000000000000000421402                                    
0007640010120180713RTUGPA3-PM                 +00000000000000000000436102                                    
0007650010120180716RTUGPA3-PM                 +00000000000000000000420002                                    
0007660010120180713RTUSIM5-AJ                 +00000000000000000000083202                                    
0007670010120180716RTUSIM5-AJ                 +00000000000000000000083302                                    
0007680010120180713RTUSIM5-MN                 +00000000000000000000081402                                    
0007690010120180716RTUSIM5-MN                 +00000000000000000000080302                                    
0007700010120180713RTUSIM5-MX                 +00000000000000000000085102                                    
0007710010120180716RTUSIM5-MX                 +00000000000000000000083402                                    
0007720010120180713RTUSIM5-PA                 +00000000000000000000082602                                    
0007730010120180716RTUSIM5-PA                 +00000000000000000000082502                                    
0007740010120180713RTUSIM5-PF                 +00000000000000000000083202                                    
0007750010120180716RTUSIM5-PF                 +00000000000000000000083302                                    
0007760010120180713RTUSIM5-PM                 +00000000000000000000083102                                    
0007770010120180716RTUSIM5-PM                 +00000000000000000000081702                                    
0007780010120180713RTVALE3-AJ                 +00000000000000000000503102                                    
0007790010120180716RTVALE3-AJ                 +00000000000000000000500002                                    
0007800010120180713RTVALE3-MN                 +00000000000000000000499302                                    
0007810010120180716RTVALE3-MN                 +00000000000000000000496002                                    
0007820010120180713RTVALE3-MX                 +00000000000000000000508902                                    
0007830010120180716RTVALE3-MX                 +00000000000000000000506002                                    
0007840010120180713RTVALE3-PA                 +00000000000000000000506002                                    
0007850010120180716RTVALE3-PA                 +00000000000000000000503102                                    
0007860010120180713RTVALE3-PF                 +00000000000000000000503102                                    
0007870010120180716RTVALE3-PF                 +00000000000000000000500002                                    
0007880010120180713RTVALE3-PM                 +00000000000000000000504802                                    
0007890010120180716RTVALE3-PM                 +00000000000000000000500302                                    
0007900010120180713RTVALE5-AJ                 +00000000000000000000333602                                    
0007910010120180716RTVALE5-AJ                 +00000000000000000000333602                                    
0007920010120180713RTVALE5-MN                 +00000000000000000000327402                                    
0007930010120180716RTVALE5-MN                 +00000000000000000000327402                                    
0007940010120180713RTVALE5-MX                 +00000000000000000000334302                                    
0007950010120180716RTVALE5-MX                 +00000000000000000000334302                                    
0007960010120180713RTVALE5-PA                 +00000000000000000000328002                                    
0007970010120180716RTVALE5-PA                 +00000000000000000000328002                                    
0007980010120180713RTVALE5-PF                 +00000000000000000000333602                                    
0007990010120180716RTVALE5-PF                 +00000000000000000000333602                                    
0008000010120180713RTVALE5-PM                 +00000000000000000000332802                                    
0008010010120180716RTVALE5-PM                 +00000000000000000000332802                                    
0008020010120180713RTWEGE3-AJ                 +00000000000000000000171502                                    
0008030010120180716RTWEGE3-AJ                 +00000000000000000000174402                                    
0008040010120180713RTWEGE3-MN                 +00000000000000000000167602                                    
0008050010120180716RTWEGE3-MN                 +00000000000000000000170802                                    
0008060010120180713RTWEGE3-MX                 +00000000000000000000171502                                    
0008070010120180716RTWEGE3-MX                 +00000000000000000000175302                                    
0008080010120180713RTWEGE3-PA                 +00000000000000000000169302                                    
0008090010120180716RTWEGE3-PA                 +00000000000000000000171202                                    
0008100010120180713RTWEGE3-PF                 +00000000000000000000171502                                    
0008110010120180716RTWEGE3-PF                 +00000000000000000000174402                                    
0008120010120180713RTWEGE3-PM                 +00000000000000000000170602                                    
0008130010120180716RTWEGE3-PM                 +00000000000000000000173502                                    
0008140010120180713RTYDO-B2                   +00000000000000000001127902                                    
0008150010120180716RTYDO-B2                   +00000000000000000001127902                                    
0008160010120180713RTYDO-W1                   +00000000000000112400000007                                    
0008170010120180716RTYDO-W1                   +00000000000000112390000007                                    
0008180010120180713RTZAR-PF                   +00000000000000000013284204                                    
0008190010120180716RTZAR-PF                   +00000000000000000013218804                                    
